{
  "_format": "hh-sol-artifact-1",
  "contractName": "MyEpicGame",
  "sourceName": "contracts/Game.sol",
  "abi": [
    {
      "inputs": [
        {
          "internalType": "string[]",
          "name": "characterNames",
          "type": "string[]"
        },
        {
          "internalType": "string[]",
          "name": "characterImageURIs",
          "type": "string[]"
        },
        {
          "internalType": "uint256[]",
          "name": "characterHp",
          "type": "uint256[]"
        },
        {
          "internalType": "uint256[]",
          "name": "characterAttackDmg",
          "type": "uint256[]"
        },
        {
          "internalType": "uint256[]",
          "name": "characterDefense",
          "type": "uint256[]"
        },
        {
          "internalType": "uint256[]",
          "name": "characterCriticalChance",
          "type": "uint256[]"
        },
        {
          "internalType": "uint256[]",
          "name": "characterCriticalMultiplier",
          "type": "uint256[]"
        },
        {
          "internalType": "string",
          "name": "bossName",
          "type": "string"
        },
        {
          "internalType": "string",
          "name": "bossImageURI",
          "type": "string"
        },
        {
          "internalType": "uint256",
          "name": "bossHp",
          "type": "uint256"
        },
        {
          "internalType": "uint256",
          "name": "bossAttackDamage",
          "type": "uint256"
        }
      ],
      "stateMutability": "nonpayable",
      "type": "constructor"
    },
    {
      "anonymous": false,
      "inputs": [
        {
          "indexed": true,
          "internalType": "address",
          "name": "owner",
          "type": "address"
        },
        {
          "indexed": true,
          "internalType": "address",
          "name": "approved",
          "type": "address"
        },
        {
          "indexed": true,
          "internalType": "uint256",
          "name": "tokenId",
          "type": "uint256"
        }
      ],
      "name": "Approval",
      "type": "event"
    },
    {
      "anonymous": false,
      "inputs": [
        {
          "indexed": true,
          "internalType": "address",
          "name": "owner",
          "type": "address"
        },
        {
          "indexed": true,
          "internalType": "address",
          "name": "operator",
          "type": "address"
        },
        {
          "indexed": false,
          "internalType": "bool",
          "name": "approved",
          "type": "bool"
        }
      ],
      "name": "ApprovalForAll",
      "type": "event"
    },
    {
      "anonymous": false,
      "inputs": [
        {
          "indexed": false,
          "internalType": "uint256",
          "name": "newBossHp",
          "type": "uint256"
        },
        {
          "indexed": false,
          "internalType": "uint256",
          "name": "newPlayerHp",
          "type": "uint256"
        },
        {
          "indexed": false,
          "internalType": "bool",
          "name": "criticalHit",
          "type": "bool"
        },
        {
          "indexed": false,
          "internalType": "bool",
          "name": "blocked",
          "type": "bool"
        }
      ],
      "name": "AttackComplete",
      "type": "event"
    },
    {
      "anonymous": false,
      "inputs": [
        {
          "indexed": false,
          "internalType": "address",
          "name": "sender",
          "type": "address"
        },
        {
          "indexed": false,
          "internalType": "uint256",
          "name": "tokenId",
          "type": "uint256"
        },
        {
          "indexed": false,
          "internalType": "uint256",
          "name": "characterIndex",
          "type": "uint256"
        }
      ],
      "name": "CharacterNFTMinted",
      "type": "event"
    },
    {
      "anonymous": false,
      "inputs": [
        {
          "indexed": true,
          "internalType": "address",
          "name": "from",
          "type": "address"
        },
        {
          "indexed": true,
          "internalType": "address",
          "name": "to",
          "type": "address"
        },
        {
          "indexed": true,
          "internalType": "uint256",
          "name": "tokenId",
          "type": "uint256"
        }
      ],
      "name": "Transfer",
      "type": "event"
    },
    {
      "inputs": [
        {
          "internalType": "address",
          "name": "to",
          "type": "address"
        },
        {
          "internalType": "uint256",
          "name": "tokenId",
          "type": "uint256"
        }
      ],
      "name": "approve",
      "outputs": [],
      "stateMutability": "nonpayable",
      "type": "function"
    },
    {
      "inputs": [],
      "name": "attackBoss",
      "outputs": [],
      "stateMutability": "nonpayable",
      "type": "function"
    },
    {
      "inputs": [
        {
          "internalType": "address",
          "name": "owner",
          "type": "address"
        }
      ],
      "name": "balanceOf",
      "outputs": [
        {
          "internalType": "uint256",
          "name": "",
          "type": "uint256"
        }
      ],
      "stateMutability": "view",
      "type": "function"
    },
    {
      "inputs": [],
      "name": "bigBoss",
      "outputs": [
        {
          "internalType": "string",
          "name": "name",
          "type": "string"
        },
        {
          "internalType": "string",
          "name": "imageURI",
          "type": "string"
        },
        {
          "internalType": "uint256",
          "name": "hp",
          "type": "uint256"
        },
        {
          "internalType": "uint256",
          "name": "maxHp",
          "type": "uint256"
        },
        {
          "internalType": "uint256",
          "name": "attackDamage",
          "type": "uint256"
        }
      ],
      "stateMutability": "view",
      "type": "function"
    },
    {
      "inputs": [],
      "name": "checkIfUserHasNFT",
      "outputs": [
        {
          "components": [
            {
              "internalType": "uint256",
              "name": "characterIndex",
              "type": "uint256"
            },
            {
              "internalType": "string",
              "name": "name",
              "type": "string"
            },
            {
              "internalType": "string",
              "name": "imageURI",
              "type": "string"
            },
            {
              "internalType": "uint256",
              "name": "hp",
              "type": "uint256"
            },
            {
              "internalType": "uint256",
              "name": "maxHp",
              "type": "uint256"
            },
            {
              "internalType": "uint256",
              "name": "attackDamage",
              "type": "uint256"
            },
            {
              "internalType": "uint256",
              "name": "defense",
              "type": "uint256"
            },
            {
              "internalType": "uint256",
              "name": "criticalChance",
              "type": "uint256"
            },
            {
              "internalType": "uint256",
              "name": "criticalMultiplier",
              "type": "uint256"
            }
          ],
          "internalType": "struct MyEpicGame.CharacterAttributes",
          "name": "",
          "type": "tuple"
        }
      ],
      "stateMutability": "view",
      "type": "function"
    },
    {
      "inputs": [],
      "name": "getAllDefaultCharacters",
      "outputs": [
        {
          "components": [
            {
              "internalType": "uint256",
              "name": "characterIndex",
              "type": "uint256"
            },
            {
              "internalType": "string",
              "name": "name",
              "type": "string"
            },
            {
              "internalType": "string",
              "name": "imageURI",
              "type": "string"
            },
            {
              "internalType": "uint256",
              "name": "hp",
              "type": "uint256"
            },
            {
              "internalType": "uint256",
              "name": "maxHp",
              "type": "uint256"
            },
            {
              "internalType": "uint256",
              "name": "attackDamage",
              "type": "uint256"
            },
            {
              "internalType": "uint256",
              "name": "defense",
              "type": "uint256"
            },
            {
              "internalType": "uint256",
              "name": "criticalChance",
              "type": "uint256"
            },
            {
              "internalType": "uint256",
              "name": "criticalMultiplier",
              "type": "uint256"
            }
          ],
          "internalType": "struct MyEpicGame.CharacterAttributes[]",
          "name": "",
          "type": "tuple[]"
        }
      ],
      "stateMutability": "view",
      "type": "function"
    },
    {
      "inputs": [
        {
          "internalType": "uint256",
          "name": "tokenId",
          "type": "uint256"
        }
      ],
      "name": "getApproved",
      "outputs": [
        {
          "internalType": "address",
          "name": "",
          "type": "address"
        }
      ],
      "stateMutability": "view",
      "type": "function"
    },
    {
      "inputs": [],
      "name": "getBigBoss",
      "outputs": [
        {
          "components": [
            {
              "internalType": "string",
              "name": "name",
              "type": "string"
            },
            {
              "internalType": "string",
              "name": "imageURI",
              "type": "string"
            },
            {
              "internalType": "uint256",
              "name": "hp",
              "type": "uint256"
            },
            {
              "internalType": "uint256",
              "name": "maxHp",
              "type": "uint256"
            },
            {
              "internalType": "uint256",
              "name": "attackDamage",
              "type": "uint256"
            }
          ],
          "internalType": "struct MyEpicGame.BigBoss",
          "name": "",
          "type": "tuple"
        }
      ],
      "stateMutability": "view",
      "type": "function"
    },
    {
      "inputs": [
        {
          "internalType": "address",
          "name": "owner",
          "type": "address"
        },
        {
          "internalType": "address",
          "name": "operator",
          "type": "address"
        }
      ],
      "name": "isApprovedForAll",
      "outputs": [
        {
          "internalType": "bool",
          "name": "",
          "type": "bool"
        }
      ],
      "stateMutability": "view",
      "type": "function"
    },
    {
      "inputs": [
        {
          "internalType": "uint256",
          "name": "_characterIndex",
          "type": "uint256"
        }
      ],
      "name": "mintCharacterNFT",
      "outputs": [],
      "stateMutability": "nonpayable",
      "type": "function"
    },
    {
      "inputs": [],
      "name": "name",
      "outputs": [
        {
          "internalType": "string",
          "name": "",
          "type": "string"
        }
      ],
      "stateMutability": "view",
      "type": "function"
    },
    {
      "inputs": [
        {
          "internalType": "uint256",
          "name": "",
          "type": "uint256"
        }
      ],
      "name": "nftHolderAttributes",
      "outputs": [
        {
          "internalType": "uint256",
          "name": "characterIndex",
          "type": "uint256"
        },
        {
          "internalType": "string",
          "name": "name",
          "type": "string"
        },
        {
          "internalType": "string",
          "name": "imageURI",
          "type": "string"
        },
        {
          "internalType": "uint256",
          "name": "hp",
          "type": "uint256"
        },
        {
          "internalType": "uint256",
          "name": "maxHp",
          "type": "uint256"
        },
        {
          "internalType": "uint256",
          "name": "attackDamage",
          "type": "uint256"
        },
        {
          "internalType": "uint256",
          "name": "defense",
          "type": "uint256"
        },
        {
          "internalType": "uint256",
          "name": "criticalChance",
          "type": "uint256"
        },
        {
          "internalType": "uint256",
          "name": "criticalMultiplier",
          "type": "uint256"
        }
      ],
      "stateMutability": "view",
      "type": "function"
    },
    {
      "inputs": [
        {
          "internalType": "address",
          "name": "",
          "type": "address"
        }
      ],
      "name": "nftHolders",
      "outputs": [
        {
          "internalType": "uint256",
          "name": "",
          "type": "uint256"
        }
      ],
      "stateMutability": "view",
      "type": "function"
    },
    {
      "inputs": [
        {
          "internalType": "uint256",
          "name": "tokenId",
          "type": "uint256"
        }
      ],
      "name": "ownerOf",
      "outputs": [
        {
          "internalType": "address",
          "name": "",
          "type": "address"
        }
      ],
      "stateMutability": "view",
      "type": "function"
    },
    {
      "inputs": [],
      "name": "randomResult",
      "outputs": [
        {
          "internalType": "uint256",
          "name": "",
          "type": "uint256"
        }
      ],
      "stateMutability": "view",
      "type": "function"
    },
    {
      "inputs": [
        {
          "internalType": "address",
          "name": "from",
          "type": "address"
        },
        {
          "internalType": "address",
          "name": "to",
          "type": "address"
        },
        {
          "internalType": "uint256",
          "name": "tokenId",
          "type": "uint256"
        }
      ],
      "name": "safeTransferFrom",
      "outputs": [],
      "stateMutability": "nonpayable",
      "type": "function"
    },
    {
      "inputs": [
        {
          "internalType": "address",
          "name": "from",
          "type": "address"
        },
        {
          "internalType": "address",
          "name": "to",
          "type": "address"
        },
        {
          "internalType": "uint256",
          "name": "tokenId",
          "type": "uint256"
        },
        {
          "internalType": "bytes",
          "name": "_data",
          "type": "bytes"
        }
      ],
      "name": "safeTransferFrom",
      "outputs": [],
      "stateMutability": "nonpayable",
      "type": "function"
    },
    {
      "inputs": [
        {
          "internalType": "address",
          "name": "operator",
          "type": "address"
        },
        {
          "internalType": "bool",
          "name": "approved",
          "type": "bool"
        }
      ],
      "name": "setApprovalForAll",
      "outputs": [],
      "stateMutability": "nonpayable",
      "type": "function"
    },
    {
      "inputs": [
        {
          "internalType": "bytes4",
          "name": "interfaceId",
          "type": "bytes4"
        }
      ],
      "name": "supportsInterface",
      "outputs": [
        {
          "internalType": "bool",
          "name": "",
          "type": "bool"
        }
      ],
      "stateMutability": "view",
      "type": "function"
    },
    {
      "inputs": [],
      "name": "symbol",
      "outputs": [
        {
          "internalType": "string",
          "name": "",
          "type": "string"
        }
      ],
      "stateMutability": "view",
      "type": "function"
    },
    {
      "inputs": [
        {
          "internalType": "uint256",
          "name": "_tokenId",
          "type": "uint256"
        }
      ],
      "name": "tokenURI",
      "outputs": [
        {
          "internalType": "string",
          "name": "",
          "type": "string"
        }
      ],
      "stateMutability": "view",
      "type": "function"
    },
    {
      "inputs": [
        {
          "internalType": "address",
          "name": "from",
          "type": "address"
        },
        {
          "internalType": "address",
          "name": "to",
          "type": "address"
        },
        {
          "internalType": "uint256",
          "name": "tokenId",
          "type": "uint256"
        }
      ],
      "name": "transferFrom",
      "outputs": [],
      "stateMutability": "nonpayable",
      "type": "function"
    }
  ],
  "bytecode": "0x60806040523480156200001157600080fd5b506040516200613d3803806200613d833981810160405281019062000037919062000baa565b6040518060400160405280600a81526020017f426174746c6543617473000000000000000000000000000000000000000000008152506040518060400160405280600981526020017f5458504c534d53495300000000000000000000000000000000000000000000008152508160009080519060200190620000bb9291906200093d565b508060019080519060200190620000d49291906200093d565b5050507f2ed0feb3e7fd2022120aa84fab1945545a9f2ffc9076fd6156fa96eaff4c131160001b60088190555067016345785d8a00006009819055506040518060a0016040528085815260200184815260200183815260200183815260200182815250600c6000820151816000019080519060200190620001579291906200093d565b506020820151816001019080519060200190620001769291906200093d565b50604082015181600201556060820151816003015560808201518160040155905050620002f96040518060600160405280602a815260200162006113602a9139600c6000018054620001c89062000fc4565b80601f0160208091040260200160405190810160405280929190818152602001828054620001f69062000fc4565b8015620002475780601f106200021b5761010080835404028352916020019162000247565b820191906000526020600020905b8154815290600101906020018083116200022957829003601f168201915b5050505050600c60020154600c6001018054620002649062000fc4565b80601f0160208091040260200160405190810160405280929190818152602001828054620002929062000fc4565b8015620002e35780601f10620002b757610100808354040283529160200191620002e3565b820191906000526020600020905b815481529060010190602001808311620002c557829003601f168201915b50505050506200085260201b6200213f1760201c565b60005b8b51811015620008295760076040518061012001604052808381526020018e848151811062000354577f4e487b7100000000000000000000000000000000000000000000000000000000600052603260045260246000fd5b602002602001015181526020018d84815181106200039b577f4e487b7100000000000000000000000000000000000000000000000000000000600052603260045260246000fd5b602002602001015181526020018c8481518110620003e2577f4e487b7100000000000000000000000000000000000000000000000000000000600052603260045260246000fd5b602002602001015181526020018c848151811062000429577f4e487b7100000000000000000000000000000000000000000000000000000000600052603260045260246000fd5b602002602001015181526020018b848151811062000470577f4e487b7100000000000000000000000000000000000000000000000000000000600052603260045260246000fd5b602002602001015181526020018a8481518110620004b7577f4e487b7100000000000000000000000000000000000000000000000000000000600052603260045260246000fd5b60200260200101518152602001898481518110620004fe577f4e487b7100000000000000000000000000000000000000000000000000000000600052603260045260246000fd5b6020026020010151815260200188848151811062000545577f4e487b7100000000000000000000000000000000000000000000000000000000600052603260045260246000fd5b60200260200101518152509080600181540180825580915050600190039060005260206000209060090201600090919091909150600082015181600001556020820151816001019080519060200190620005a19291906200093d565b506040820151816002019080519060200190620005c09291906200093d565b50606082015181600301556080820151816004015560a0820151816005015560c0820151816006015560e08201518160070155610100820151816008015550506000600782815481106200063d577f4e487b7100000000000000000000000000000000000000000000000000000000600052603260045260246000fd5b90600052602060002090600902016040518061012001604052908160008201548152602001600182018054620006739062000fc4565b80601f0160208091040260200160405190810160405280929190818152602001828054620006a19062000fc4565b8015620006f25780601f10620006c657610100808354040283529160200191620006f2565b820191906000526020600020905b815481529060010190602001808311620006d457829003601f168201915b505050505081526020016002820180546200070d9062000fc4565b80601f01602080910402602001604051908101604052809291908181526020018280546200073b9062000fc4565b80156200078c5780601f1062000760576101008083540402835291602001916200078c565b820191906000526020600020905b8154815290600101906020018083116200076e57829003601f168201915b505050505081526020016003820154815260200160048201548152602001600582015481526020016006820154815260200160078201548152602001600882015481525050905062000811604051806060016040528060258152602001620060ee602591398260200151836060015184604001516200085260201b6200213f1760201c565b5060018162000821919062000f27565b9050620002fc565b50620008416006620008fe60201b620021e11760201c565b5050505050505050505050620010b2565b620008f8848484846040516024016200086f949392919062000de4565b6040516020818303038152906040527f8d142cdd000000000000000000000000000000000000000000000000000000007bffffffffffffffffffffffffffffffffffffffffffffffffffffffff19166020820180517bffffffffffffffffffffffffffffffffffffffffffffffffffffffff83818316178352505050506200091460201b60201c565b50505050565b6001816000016000828254019250508190555050565b60008151905060006a636f6e736f6c652e6c6f679050602083016000808483855afa5050505050565b8280546200094b9062000fc4565b90600052602060002090601f0160209004810192826200096f5760008555620009bb565b82601f106200098a57805160ff1916838001178555620009bb565b82800160010185558215620009bb579182015b82811115620009ba5782518255916020019190600101906200099d565b5b509050620009ca9190620009ce565b5090565b5b80821115620009e9576000816000905550600101620009cf565b5090565b600062000a04620009fe8462000e7a565b62000e46565b9050808382526020820190508260005b8581101562000a48578151850162000a2d888262000b66565b84526020840193506020830192505060018101905062000a14565b5050509392505050565b600062000a6962000a638462000ea9565b62000e46565b9050808382526020820190508285602086028201111562000a8957600080fd5b60005b8581101562000abd578162000aa2888262000b93565b84526020840193506020830192505060018101905062000a8c565b5050509392505050565b600062000ade62000ad88462000ed8565b62000e46565b90508281526020810184848401111562000af757600080fd5b62000b0484828562000f8e565b509392505050565b600082601f83011262000b1e57600080fd5b815162000b30848260208601620009ed565b91505092915050565b600082601f83011262000b4b57600080fd5b815162000b5d84826020860162000a52565b91505092915050565b600082601f83011262000b7857600080fd5b815162000b8a84826020860162000ac7565b91505092915050565b60008151905062000ba48162001098565b92915050565b60008060008060008060008060008060006101608c8e03121562000bcd57600080fd5b60008c015167ffffffffffffffff81111562000be857600080fd5b62000bf68e828f0162000b0c565b9b505060208c015167ffffffffffffffff81111562000c1457600080fd5b62000c228e828f0162000b0c565b9a505060408c015167ffffffffffffffff81111562000c4057600080fd5b62000c4e8e828f0162000b39565b99505060608c015167ffffffffffffffff81111562000c6c57600080fd5b62000c7a8e828f0162000b39565b98505060808c015167ffffffffffffffff81111562000c9857600080fd5b62000ca68e828f0162000b39565b97505060a08c015167ffffffffffffffff81111562000cc457600080fd5b62000cd28e828f0162000b39565b96505060c08c015167ffffffffffffffff81111562000cf057600080fd5b62000cfe8e828f0162000b39565b95505060e08c015167ffffffffffffffff81111562000d1c57600080fd5b62000d2a8e828f0162000b66565b9450506101008c015167ffffffffffffffff81111562000d4957600080fd5b62000d578e828f0162000b66565b93505061012062000d6b8e828f0162000b93565b92505061014062000d7f8e828f0162000b93565b9150509295989b509295989b9093969950565b600062000d9f8262000f0b565b62000dab818562000f16565b935062000dbd81856020860162000f8e565b62000dc88162001087565b840191505092915050565b62000dde8162000f84565b82525050565b6000608082019050818103600083015262000e00818762000d92565b9050818103602083015262000e16818662000d92565b905062000e27604083018562000dd3565b818103606083015262000e3b818462000d92565b905095945050505050565b6000604051905081810181811067ffffffffffffffff8211171562000e705762000e6f62001058565b5b8060405250919050565b600067ffffffffffffffff82111562000e985762000e9762001058565b5b602082029050602081019050919050565b600067ffffffffffffffff82111562000ec75762000ec662001058565b5b602082029050602081019050919050565b600067ffffffffffffffff82111562000ef65762000ef562001058565b5b601f19601f8301169050602081019050919050565b600081519050919050565b600082825260208201905092915050565b600062000f348262000f84565b915062000f418362000f84565b9250827fffffffffffffffffffffffffffffffffffffffffffffffffffffffffffffffff0382111562000f795762000f7862000ffa565b5b828201905092915050565b6000819050919050565b60005b8381101562000fae57808201518184015260208101905062000f91565b8381111562000fbe576000848401525b50505050565b6000600282049050600182168062000fdd57607f821691505b6020821081141562000ff45762000ff362001029565b5b50919050565b7f4e487b7100000000000000000000000000000000000000000000000000000000600052601160045260246000fd5b7f4e487b7100000000000000000000000000000000000000000000000000000000600052602260045260246000fd5b7f4e487b7100000000000000000000000000000000000000000000000000000000600052604160045260246000fd5b6000601f19601f8301169050919050565b620010a38162000f84565b8114620010af57600080fd5b50565b61502c80620010c26000396000f3fe608060405234801561001057600080fd5b50600436106101425760003560e01c806395d89b41116100b8578063b953084e1161007c578063b953084e14610395578063c87b56dd146103b3578063c8cf27f4146103e3578063d4f24c5b14610401578063e985e9c51461040b578063f8b81ef71461043b57610142565b806395d89b41146102e557806398da4c9514610303578063a22cb4651461033b578063a9c3267914610357578063b88d4fde1461037957610142565b806323b872dd1161010a57806323b872dd146101ff57806342619f661461021b57806342842e0e146102395780636352211e1461025557806370a08231146102855780637df124a1146102b557610142565b806301ffc9a7146101475780630665f9611461017757806306fdde0314610195578063081812fc146101b3578063095ea7b3146101e3575b600080fd5b610161600480360381019061015c919061356a565b610457565b60405161016e91906144e2565b60405180910390f35b61017f610539565b60405161018c91906148f0565b60405180910390f35b61019d610695565b6040516101aa91906144fd565b60405180910390f35b6101cd60048036038101906101c891906135bc565b610727565b6040516101da9190614422565b60405180910390f35b6101fd60048036038101906101f8919061352e565b6107ac565b005b61021960048036038101906102149190613428565b6108c4565b005b610223610924565b6040516102309190614934565b60405180910390f35b610253600480360381019061024e9190613428565b61092a565b005b61026f600480360381019061026a91906135bc565b61094a565b60405161027c9190614422565b60405180910390f35b61029f600480360381019061029a91906133c3565b6109fc565b6040516102ac9190614934565b60405180910390f35b6102cf60048036038101906102ca91906133c3565b610ab4565b6040516102dc9190614934565b60405180910390f35b6102ed610acc565b6040516102fa91906144fd565b60405180910390f35b61031d600480360381019061031891906135bc565b610b5e565b6040516103329998979695949392919061494f565b60405180910390f35b610355600480360381019061035091906134f2565b610cbc565b005b61035f610e3d565b604051610370959493929190614641565b60405180910390f35b610393600480360381019061038e9190613477565b610f71565b005b61039d610fd3565b6040516103aa91906144c0565b60405180910390f35b6103cd60048036038101906103c891906135bc565b61119d565b6040516103da91906144fd565b60405180910390f35b6103eb611414565b6040516103f89190614912565b60405180910390f35b61040961160b565b005b610425600480360381019061042091906133ec565b611ba4565b60405161043291906144e2565b60405180910390f35b610455600480360381019061045091906135bc565b611c38565b005b60007f80ac58cd000000000000000000000000000000000000000000000000000000007bffffffffffffffffffffffffffffffffffffffffffffffffffffffff1916827bffffffffffffffffffffffffffffffffffffffffffffffffffffffff1916148061052257507f5b5e139f000000000000000000000000000000000000000000000000000000007bffffffffffffffffffffffffffffffffffffffffffffffffffffffff1916827bffffffffffffffffffffffffffffffffffffffffffffffffffffffff1916145b806105325750610531826121f7565b5b9050919050565b6105416131d4565b600c6040518060a001604052908160008201805461055e90614ce8565b80601f016020809104026020016040519081016040528092919081815260200182805461058a90614ce8565b80156105d75780601f106105ac576101008083540402835291602001916105d7565b820191906000526020600020905b8154815290600101906020018083116105ba57829003601f168201915b505050505081526020016001820180546105f090614ce8565b80601f016020809104026020016040519081016040528092919081815260200182805461061c90614ce8565b80156106695780601f1061063e57610100808354040283529160200191610669565b820191906000526020600020905b81548152906001019060200180831161064c57829003601f168201915b505050505081526020016002820154815260200160038201548152602001600482015481525050905090565b6060600080546106a490614ce8565b80601f01602080910402602001604051908101604052809291908181526020018280546106d090614ce8565b801561071d5780601f106106f25761010080835404028352916020019161071d565b820191906000526020600020905b81548152906001019060200180831161070057829003601f168201915b5050505050905090565b600061073282612261565b610771576040517f08c379a000000000000000000000000000000000000000000000000000000000815260040161076890614850565b60405180910390fd5b6004600083815260200190815260200160002060009054906101000a900473ffffffffffffffffffffffffffffffffffffffff169050919050565b60006107b78261094a565b90508073ffffffffffffffffffffffffffffffffffffffff168373ffffffffffffffffffffffffffffffffffffffff161415610828576040517f08c379a000000000000000000000000000000000000000000000000000000000815260040161081f906148b0565b60405180910390fd5b8073ffffffffffffffffffffffffffffffffffffffff166108476122cd565b73ffffffffffffffffffffffffffffffffffffffff1614806108765750610875816108706122cd565b611ba4565b5b6108b5576040517f08c379a00000000000000000000000000000000000000000000000000000000081526004016108ac906147d0565b60405180910390fd5b6108bf83836122d5565b505050565b6108d56108cf6122cd565b8261238e565b610914576040517f08c379a000000000000000000000000000000000000000000000000000000000815260040161090b906148d0565b60405180910390fd5b61091f83838361246c565b505050565b600a5481565b61094583838360405180602001604052806000815250610f71565b505050565b6000806002600084815260200190815260200160002060009054906101000a900473ffffffffffffffffffffffffffffffffffffffff169050600073ffffffffffffffffffffffffffffffffffffffff168173ffffffffffffffffffffffffffffffffffffffff1614156109f3576040517f08c379a00000000000000000000000000000000000000000000000000000000081526004016109ea90614810565b60405180910390fd5b80915050919050565b60008073ffffffffffffffffffffffffffffffffffffffff168273ffffffffffffffffffffffffffffffffffffffff161415610a6d576040517f08c379a0000000000000000000000000000000000000000000000000000000008152600401610a64906147f0565b60405180910390fd5b600360008373ffffffffffffffffffffffffffffffffffffffff1673ffffffffffffffffffffffffffffffffffffffff168152602001908152602001600020549050919050565b60116020528060005260406000206000915090505481565b606060018054610adb90614ce8565b80601f0160208091040260200160405190810160405280929190818152602001828054610b0790614ce8565b8015610b545780601f10610b2957610100808354040283529160200191610b54565b820191906000526020600020905b815481529060010190602001808311610b3757829003601f168201915b5050505050905090565b600b602052806000526040600020600091509050806000015490806001018054610b8790614ce8565b80601f0160208091040260200160405190810160405280929190818152602001828054610bb390614ce8565b8015610c005780601f10610bd557610100808354040283529160200191610c00565b820191906000526020600020905b815481529060010190602001808311610be357829003601f168201915b505050505090806002018054610c1590614ce8565b80601f0160208091040260200160405190810160405280929190818152602001828054610c4190614ce8565b8015610c8e5780601f10610c6357610100808354040283529160200191610c8e565b820191906000526020600020905b815481529060010190602001808311610c7157829003601f168201915b5050505050908060030154908060040154908060050154908060060154908060070154908060080154905089565b610cc46122cd565b73ffffffffffffffffffffffffffffffffffffffff168273ffffffffffffffffffffffffffffffffffffffff161415610d32576040517f08c379a0000000000000000000000000000000000000000000000000000000008152600401610d2990614790565b60405180910390fd5b8060056000610d3f6122cd565b73ffffffffffffffffffffffffffffffffffffffff1673ffffffffffffffffffffffffffffffffffffffff16815260200190815260200160002060008473ffffffffffffffffffffffffffffffffffffffff1673ffffffffffffffffffffffffffffffffffffffff16815260200190815260200160002060006101000a81548160ff0219169083151502179055508173ffffffffffffffffffffffffffffffffffffffff16610dec6122cd565b73ffffffffffffffffffffffffffffffffffffffff167f17307eab39ab6107e8899845ad3d59bd9653f200f220920489ca2b5937696c3183604051610e3191906144e2565b60405180910390a35050565b600c806000018054610e4e90614ce8565b80601f0160208091040260200160405190810160405280929190818152602001828054610e7a90614ce8565b8015610ec75780601f10610e9c57610100808354040283529160200191610ec7565b820191906000526020600020905b815481529060010190602001808311610eaa57829003601f168201915b505050505090806001018054610edc90614ce8565b80601f0160208091040260200160405190810160405280929190818152602001828054610f0890614ce8565b8015610f555780601f10610f2a57610100808354040283529160200191610f55565b820191906000526020600020905b815481529060010190602001808311610f3857829003601f168201915b5050505050908060020154908060030154908060040154905085565b610f82610f7c6122cd565b8361238e565b610fc1576040517f08c379a0000000000000000000000000000000000000000000000000000000008152600401610fb8906148d0565b60405180910390fd5b610fcd848484846126c8565b50505050565b60606007805480602002602001604051908101604052809291908181526020016000905b828210156111945783829060005260206000209060090201604051806101200160405290816000820154815260200160018201805461103590614ce8565b80601f016020809104026020016040519081016040528092919081815260200182805461106190614ce8565b80156110ae5780601f10611083576101008083540402835291602001916110ae565b820191906000526020600020905b81548152906001019060200180831161109157829003601f168201915b505050505081526020016002820180546110c790614ce8565b80601f01602080910402602001604051908101604052809291908181526020018280546110f390614ce8565b80156111405780601f1061111557610100808354040283529160200191611140565b820191906000526020600020905b81548152906001019060200180831161112357829003601f168201915b50505050508152602001600382015481526020016004820154815260200160058201548152602001600682015481526020016007820154815260200160088201548152505081526020019060010190610ff7565b50505050905090565b60606000600b600084815260200190815260200160002060405180610120016040529081600082015481526020016001820180546111da90614ce8565b80601f016020809104026020016040519081016040528092919081815260200182805461120690614ce8565b80156112535780601f1061122857610100808354040283529160200191611253565b820191906000526020600020905b81548152906001019060200180831161123657829003601f168201915b5050505050815260200160028201805461126c90614ce8565b80601f016020809104026020016040519081016040528092919081815260200182805461129890614ce8565b80156112e55780601f106112ba576101008083540402835291602001916112e5565b820191906000526020600020905b8154815290600101906020018083116112c857829003601f168201915b5050505050815260200160038201548152602001600482015481526020016005820154815260200160068201548152602001600782015481526020016008820154815250509050600061133b8260600151612724565b9050600061134c8360800151612724565b9050600061135d8460a00151612724565b9050600061136e8560c00151612724565b9050600061137f8660e00151612724565b90506000611391876101000151612724565b905060006113dd88602001516113a68c612724565b8a604001518a8a8a89898c6040516020016113c999989796959493929190614313565b6040516020818303038152906040526128d1565b90506000816040516020016113f29190614400565b6040516020818303038152906040529050809950505050505050505050919050565b61141c613203565b6000601160003373ffffffffffffffffffffffffffffffffffffffff1673ffffffffffffffffffffffffffffffffffffffff16815260200190815260200160002054905060008111156115fa57600b600082815260200190815260200160002060405180610120016040529081600082015481526020016001820180546114a290614ce8565b80601f01602080910402602001604051908101604052809291908181526020018280546114ce90614ce8565b801561151b5780601f106114f05761010080835404028352916020019161151b565b820191906000526020600020905b8154815290600101906020018083116114fe57829003601f168201915b5050505050815260200160028201805461153490614ce8565b80601f016020809104026020016040519081016040528092919081815260200182805461156090614ce8565b80156115ad5780601f10611582576101008083540402835291602001916115ad565b820191906000526020600020905b81548152906001019060200180831161159057829003601f168201915b505050505081526020016003820154815260200160048201548152602001600582015481526020016006820154815260200160078201548152602001600882015481525050915050611608565b611602613203565b80925050505b90565b6000601160003373ffffffffffffffffffffffffffffffffffffffff1673ffffffffffffffffffffffffffffffffffffffff1681526020019081526020016000205490506000600b6000838152602001908152602001600020905061171e6040518060600160405280603c8152602001614fbb603c913982600101805461169190614ce8565b80601f01602080910402602001604051908101604052809291908181526020018280546116bd90614ce8565b801561170a5780601f106116df5761010080835404028352916020019161170a565b820191906000526020600020905b8154815290600101906020018083116116ed57829003601f168201915b505050505083600301548460050154612a8f565b6117f66040518060400160405280601b81526020017f426f73732025732068617320257320485020616e642025732041440000000000815250600c600001805461176790614ce8565b80601f016020809104026020016040519081016040528092919081815260200182805461179390614ce8565b80156117e05780601f106117b5576101008083540402835291602001916117e0565b820191906000526020600020905b8154815290600101906020018083116117c357829003601f168201915b5050505050600c60020154600c60040154612a8f565b600081600301541161183d576040517f08c379a000000000000000000000000000000000000000000000000000000000815260040161183490614710565b60405180910390fd5b6000600c6002015411611885576040517f08c379a000000000000000000000000000000000000000000000000000000000815260040161187c90614890565b60405180910390fd5b6118c66040518060400160405280601481526020017f72616e646f6d206e756d626572203a202573202c000000000000000000000000815250600a54612b31565b6000600a82600601546118d99190614b73565b905060006064600a5442446118ee9190614b1d565b6118f89190614b1d565b6119029190614d63565b9050600060648242446119159190614b1d565b61191f9190614b1d565b6119299190614d63565b905061194e604051806060016040528060278152602001614f31602791398383612bcd565b81600a819055506000808560050154600c600201541015611979576000600c600201819055506119dd565b8560070154600a5410156119bd578560080154866005015461199b9190614ba4565b600c600201546119ab9190614bfe565b600c60020181905550600191506119dc565b8560050154600c600201546119d29190614bfe565b600c600201819055505b5b84831090506000600c600201541115611a885780611a3457600c6004015486600301541015611a155760008660030181905550611a33565b600c600401548660030154611a2a9190614bfe565b86600301819055505b5b611a60604051806060016040528060358152602001614f8660359139600c600201548860030154612bcd565b611a83604051806060016040528060338152602001614ebe603391398383612c6c565b611b55565b611b546040518060400160405280601881526020017f506c61796572206f626c6974657261746564202573203a4f0000000000000000815250600c6000018054611ad190614ce8565b80601f0160208091040260200160405190810160405280929190818152602001828054611afd90614ce8565b8015611b4a5780601f10611b1f57610100808354040283529160200191611b4a565b820191906000526020600020905b815481529060010190602001808311611b2d57829003601f168201915b5050505050612d0b565b5b7f1824a9c93adf0f7c39a6858fe842fa8820959f97a64577da07532cd6988f3643600c6002015487600301548484604051611b9394939291906149ea565b60405180910390a150505050505050565b6000600560008473ffffffffffffffffffffffffffffffffffffffff1673ffffffffffffffffffffffffffffffffffffffff16815260200190815260200160002060008373ffffffffffffffffffffffffffffffffffffffff1673ffffffffffffffffffffffffffffffffffffffff16815260200190815260200160002060009054906101000a900460ff16905092915050565b6000611c446006612da7565b9050611c503382612db5565b60405180610120016040528083815260200160078481548110611c9c577f4e487b7100000000000000000000000000000000000000000000000000000000600052603260045260246000fd5b90600052602060002090600902016001018054611cb890614ce8565b80601f0160208091040260200160405190810160405280929190818152602001828054611ce490614ce8565b8015611d315780601f10611d0657610100808354040283529160200191611d31565b820191906000526020600020905b815481529060010190602001808311611d1457829003601f168201915b5050505050815260200160078481548110611d75577f4e487b7100000000000000000000000000000000000000000000000000000000600052603260045260246000fd5b90600052602060002090600902016002018054611d9190614ce8565b80601f0160208091040260200160405190810160405280929190818152602001828054611dbd90614ce8565b8015611e0a5780601f10611ddf57610100808354040283529160200191611e0a565b820191906000526020600020905b815481529060010190602001808311611ded57829003601f168201915b5050505050815260200160078481548110611e4e577f4e487b7100000000000000000000000000000000000000000000000000000000600052603260045260246000fd5b906000526020600020906009020160030154815260200160078481548110611e9f577f4e487b7100000000000000000000000000000000000000000000000000000000600052603260045260246000fd5b906000526020600020906009020160030154815260200160078481548110611ef0577f4e487b7100000000000000000000000000000000000000000000000000000000600052603260045260246000fd5b906000526020600020906009020160050154815260200160078481548110611f41577f4e487b7100000000000000000000000000000000000000000000000000000000600052603260045260246000fd5b906000526020600020906009020160060154815260200160078481548110611f92577f4e487b7100000000000000000000000000000000000000000000000000000000600052603260045260246000fd5b906000526020600020906009020160070154815260200160078481548110611fe3577f4e487b7100000000000000000000000000000000000000000000000000000000600052603260045260246000fd5b906000526020600020906009020160080154815250600b600083815260200190815260200160002060008201518160000155602082015181600101908051906020019061203192919061324f565b50604082015181600201908051906020019061204e92919061324f565b50606082015181600301556080820151816004015560a0820151816005015560c0820151816006015560e0820151816007015561010082015181600801559050506120b26040518060600160405280602e8152602001614f58602e91398284612bcd565b80601160003373ffffffffffffffffffffffffffffffffffffffff1673ffffffffffffffffffffffffffffffffffffffff1681526020019081526020016000208190555061210060066121e1565b7f4bc303fd457a97b4691b9af582ce71868a3d258638c8d4f8c60988a0f0bfb8cd33828460405161213393929190614489565b60405180910390a15050565b6121db848484846040516024016121599493929190614594565b6040516020818303038152906040527f8d142cdd000000000000000000000000000000000000000000000000000000007bffffffffffffffffffffffffffffffffffffffffffffffffffffffff19166020820180517bffffffffffffffffffffffffffffffffffffffffffffffffffffffff8381831617835250505050612dd3565b50505050565b6001816000016000828254019250508190555050565b60007f01ffc9a7000000000000000000000000000000000000000000000000000000007bffffffffffffffffffffffffffffffffffffffffffffffffffffffff1916827bffffffffffffffffffffffffffffffffffffffffffffffffffffffff1916149050919050565b60008073ffffffffffffffffffffffffffffffffffffffff166002600084815260200190815260200160002060009054906101000a900473ffffffffffffffffffffffffffffffffffffffff1673ffffffffffffffffffffffffffffffffffffffff1614159050919050565b600033905090565b816004600083815260200190815260200160002060006101000a81548173ffffffffffffffffffffffffffffffffffffffff021916908373ffffffffffffffffffffffffffffffffffffffff160217905550808273ffffffffffffffffffffffffffffffffffffffff166123488361094a565b73ffffffffffffffffffffffffffffffffffffffff167f8c5be1e5ebec7d5bd14f71427d1e84f3dd0314c0f7b2291e5b200ac8c7c3b92560405160405180910390a45050565b600061239982612261565b6123d8576040517f08c379a00000000000000000000000000000000000000000000000000000000081526004016123cf906147b0565b60405180910390fd5b60006123e38361094a565b90508073ffffffffffffffffffffffffffffffffffffffff168473ffffffffffffffffffffffffffffffffffffffff16148061245257508373ffffffffffffffffffffffffffffffffffffffff1661243a84610727565b73ffffffffffffffffffffffffffffffffffffffff16145b8061246357506124628185611ba4565b5b91505092915050565b8273ffffffffffffffffffffffffffffffffffffffff1661248c8261094a565b73ffffffffffffffffffffffffffffffffffffffff16146124e2576040517f08c379a00000000000000000000000000000000000000000000000000000000081526004016124d990614870565b60405180910390fd5b600073ffffffffffffffffffffffffffffffffffffffff168273ffffffffffffffffffffffffffffffffffffffff161415612552576040517f08c379a000000000000000000000000000000000000000000000000000000000815260040161254990614770565b60405180910390fd5b61255d838383612dfc565b6125686000826122d5565b6001600360008573ffffffffffffffffffffffffffffffffffffffff1673ffffffffffffffffffffffffffffffffffffffff16815260200190815260200160002060008282546125b89190614bfe565b925050819055506001600360008473ffffffffffffffffffffffffffffffffffffffff1673ffffffffffffffffffffffffffffffffffffffff168152602001908152602001600020600082825461260f9190614b1d565b92505081905550816002600083815260200190815260200160002060006101000a81548173ffffffffffffffffffffffffffffffffffffffff021916908373ffffffffffffffffffffffffffffffffffffffff160217905550808273ffffffffffffffffffffffffffffffffffffffff168473ffffffffffffffffffffffffffffffffffffffff167fddf252ad1be2c89b69c2b068fc378daa952ba7f163c4a11628f55a4df523b3ef60405160405180910390a4505050565b6126d384848461246c565b6126df84848484612e01565b61271e576040517f08c379a000000000000000000000000000000000000000000000000000000000815260040161271590614730565b60405180910390fd5b50505050565b6060600082141561276c576040518060400160405280600181526020017f300000000000000000000000000000000000000000000000000000000000000081525090506128cc565b600082905060005b6000821461279e57808061278790614d1a565b915050600a826127979190614b73565b9150612774565b60008167ffffffffffffffff8111156127e0577f4e487b7100000000000000000000000000000000000000000000000000000000600052604160045260246000fd5b6040519080825280601f01601f1916602001820160405280156128125781602001600182028036833780820191505090505b5090505b600085146128c55760018261282b9190614bfe565b9150600a8561283a9190614d63565b60306128469190614b1d565b60f81b818381518110612882577f4e487b7100000000000000000000000000000000000000000000000000000000600052603260045260246000fd5b60200101907effffffffffffffffffffffffffffffffffffffffffffffffffffffffffffff1916908160001a905350600a856128be9190614b73565b9450612816565b8093505050505b919050565b606060008251905060008114156128fa5760405180602001604052806000815250915050612a8a565b6000600360028361290b9190614b1d565b6129159190614b73565b60046129219190614ba4565b905060006020826129329190614b1d565b67ffffffffffffffff811115612971577f4e487b7100000000000000000000000000000000000000000000000000000000600052604160045260246000fd5b6040519080825280601f01601f1916602001820160405280156129a35781602001600182028036833780820191505090505b5090506000604051806060016040528060408152602001614ef1604091399050600181016020830160005b86811015612a475760038101905062ffffff818a015116603f8160121c168401518060081b905060ff603f83600c1c1686015116810190508060081b905060ff603f8360061c1686015116810190508060081b905060ff603f831686015116810190508060e01b905080845260048401935050506129ce565b506003860660018114612a615760028114612a7157612a7c565b613d3d60f01b6002830352612a7c565b603d60f81b60018303525b508484525050819450505050505b919050565b612b2b84848484604051602401612aa994939291906145ee565b6040516020818303038152906040527fd5cf17d0000000000000000000000000000000000000000000000000000000007bffffffffffffffffffffffffffffffffffffffffffffffffffffffff19166020820180517bffffffffffffffffffffffffffffffffffffffffffffffffffffffff8381831617835250505050612dd3565b50505050565b612bc98282604051602401612b479291906146a2565b6040516020818303038152906040527f9710a9d0000000000000000000000000000000000000000000000000000000007bffffffffffffffffffffffffffffffffffffffffffffffffffffffff19166020820180517bffffffffffffffffffffffffffffffffffffffffffffffffffffffff8381831617835250505050612dd3565b5050565b612c67838383604051602401612be5939291906146d2565b6040516020818303038152906040527f969cdd03000000000000000000000000000000000000000000000000000000007bffffffffffffffffffffffffffffffffffffffffffffffffffffffff19166020820180517bffffffffffffffffffffffffffffffffffffffffffffffffffffffff8381831617835250505050612dd3565b505050565b612d06838383604051602401612c849392919061451f565b6040516020818303038152906040527f850b7ad6000000000000000000000000000000000000000000000000000000007bffffffffffffffffffffffffffffffffffffffffffffffffffffffff19166020820180517bffffffffffffffffffffffffffffffffffffffffffffffffffffffff8381831617835250505050612dd3565b505050565b612da38282604051602401612d2192919061455d565b6040516020818303038152906040527f4b5c4277000000000000000000000000000000000000000000000000000000007bffffffffffffffffffffffffffffffffffffffffffffffffffffffff19166020820180517bffffffffffffffffffffffffffffffffffffffffffffffffffffffff8381831617835250505050612dd3565b5050565b600081600001549050919050565b612dcf828260405180602001604052806000815250612f98565b5050565b60008151905060006a636f6e736f6c652e6c6f679050602083016000808483855afa5050505050565b505050565b6000612e228473ffffffffffffffffffffffffffffffffffffffff16612ff3565b15612f8b578373ffffffffffffffffffffffffffffffffffffffff1663150b7a02612e4b6122cd565b8786866040518563ffffffff1660e01b8152600401612e6d949392919061443d565b602060405180830381600087803b158015612e8757600080fd5b505af1925050508015612eb857506040513d601f19601f82011682018060405250810190612eb59190613593565b60015b612f3b573d8060008114612ee8576040519150601f19603f3d011682016040523d82523d6000602084013e612eed565b606091505b50600081511415612f33576040517f08c379a0000000000000000000000000000000000000000000000000000000008152600401612f2a90614730565b60405180910390fd5b805181602001fd5b63150b7a0260e01b7bffffffffffffffffffffffffffffffffffffffffffffffffffffffff1916817bffffffffffffffffffffffffffffffffffffffffffffffffffffffff191614915050612f90565b600190505b949350505050565b612fa28383613006565b612faf6000848484612e01565b612fee576040517f08c379a0000000000000000000000000000000000000000000000000000000008152600401612fe590614730565b60405180910390fd5b505050565b600080823b905060008111915050919050565b600073ffffffffffffffffffffffffffffffffffffffff168273ffffffffffffffffffffffffffffffffffffffff161415613076576040517f08c379a000000000000000000000000000000000000000000000000000000000815260040161306d90614830565b60405180910390fd5b61307f81612261565b156130bf576040517f08c379a00000000000000000000000000000000000000000000000000000000081526004016130b690614750565b60405180910390fd5b6130cb60008383612dfc565b6001600360008473ffffffffffffffffffffffffffffffffffffffff1673ffffffffffffffffffffffffffffffffffffffff168152602001908152602001600020600082825461311b9190614b1d565b92505081905550816002600083815260200190815260200160002060006101000a81548173ffffffffffffffffffffffffffffffffffffffff021916908373ffffffffffffffffffffffffffffffffffffffff160217905550808273ffffffffffffffffffffffffffffffffffffffff16600073ffffffffffffffffffffffffffffffffffffffff167fddf252ad1be2c89b69c2b068fc378daa952ba7f163c4a11628f55a4df523b3ef60405160405180910390a45050565b6040518060a0016040528060608152602001606081526020016000815260200160008152602001600081525090565b6040518061012001604052806000815260200160608152602001606081526020016000815260200160008152602001600081526020016000815260200160008152602001600081525090565b82805461325b90614ce8565b90600052602060002090601f01602090048101928261327d57600085556132c4565b82601f1061329657805160ff19168380011785556132c4565b828001600101855582156132c4579182015b828111156132c35782518255916020019190600101906132a8565b5b5090506132d191906132d5565b5090565b5b808211156132ee5760008160009055506001016132d6565b5090565b600061330561330084614a60565b614a2f565b90508281526020810184848401111561331d57600080fd5b613328848285614ca6565b509392505050565b60008135905061333f81614e61565b92915050565b60008135905061335481614e78565b92915050565b60008135905061336981614e8f565b92915050565b60008151905061337e81614e8f565b92915050565b600082601f83011261339557600080fd5b81356133a58482602086016132f2565b91505092915050565b6000813590506133bd81614ea6565b92915050565b6000602082840312156133d557600080fd5b60006133e384828501613330565b91505092915050565b600080604083850312156133ff57600080fd5b600061340d85828601613330565b925050602061341e85828601613330565b9150509250929050565b60008060006060848603121561343d57600080fd5b600061344b86828701613330565b935050602061345c86828701613330565b925050604061346d868287016133ae565b9150509250925092565b6000806000806080858703121561348d57600080fd5b600061349b87828801613330565b94505060206134ac87828801613330565b93505060406134bd878288016133ae565b925050606085013567ffffffffffffffff8111156134da57600080fd5b6134e687828801613384565b91505092959194509250565b6000806040838503121561350557600080fd5b600061351385828601613330565b925050602061352485828601613345565b9150509250929050565b6000806040838503121561354157600080fd5b600061354f85828601613330565b9250506020613560858286016133ae565b9150509250929050565b60006020828403121561357c57600080fd5b600061358a8482850161335a565b91505092915050565b6000602082840312156135a557600080fd5b60006135b38482850161336f565b91505092915050565b6000602082840312156135ce57600080fd5b60006135dc848285016133ae565b91505092915050565b60006135f1838361415d565b905092915050565b61360281614c32565b82525050565b600061361382614aa0565b61361d8185614ace565b93508360208202850161362f85614a90565b8060005b8581101561366b578484038952815161364c85826135e5565b945061365783614ac1565b925060208a01995050600181019050613633565b50829750879550505050505092915050565b61368681614c44565b82525050565b600061369782614aab565b6136a18185614adf565b93506136b1818560208601614cb5565b6136ba81614e50565b840191505092915050565b60006136d082614ab6565b6136da8185614af0565b93506136ea818560208601614cb5565b6136f381614e50565b840191505092915050565b600061370982614ab6565b6137138185614b01565b9350613723818560208601614cb5565b61372c81614e50565b840191505092915050565b600061374282614ab6565b61374c8185614b12565b935061375c818560208601614cb5565b80840191505092915050565b6000613775600b83614b12565b91507f202d2d204e465420233a200000000000000000000000000000000000000000006000830152600b82019050919050565b60006137b5602883614b01565b91507f4572726f723a206465616420636174732063616e742061747461636b21202e2e60008301527f2e20796574203b290000000000000000000000000000000000000000000000006020830152604082019050919050565b600061381b603283614b01565b91507f4552433732313a207472616e7366657220746f206e6f6e20455243373231526560008301527f63656976657220696d706c656d656e74657200000000000000000000000000006020830152604082019050919050565b6000613881601c83614b01565b91507f4552433732313a20746f6b656e20616c7265616479206d696e746564000000006000830152602082019050919050565b60006138c1603383614b12565b91507f7d2c207b202274726169745f74797065223a2022437269746963616c204d756c60008301527f7469706c696572222c202276616c7565223a20000000000000000000000000006020830152603382019050919050565b6000613927600e83614b12565b91507f2c20226d61785f76616c7565223a0000000000000000000000000000000000006000830152600e82019050919050565b6000613967602483614b01565b91507f4552433732313a207472616e7366657220746f20746865207a65726f2061646460008301527f72657373000000000000000000000000000000000000000000000000000000006020830152604082019050919050565b60006139cd601983614b01565b91507f4552433732313a20617070726f766520746f2063616c6c6572000000000000006000830152602082019050919050565b6000613a0d606383614b12565b91507f222c20226465736372697074696f6e223a20225468697320697320616e204e4660008301527f542074686174206c6574732070656f706c6520706c617920696e20746865206760208301527f616d6520426174746c654361747321222c2022696d616765223a20226970667360408301527f3a2f2f00000000000000000000000000000000000000000000000000000000006060830152606382019050919050565b6000613abf602c83614b01565b91507f4552433732313a206f70657261746f7220717565727920666f72206e6f6e657860008301527f697374656e7420746f6b656e00000000000000000000000000000000000000006020830152604082019050919050565b6000613b25603883614b01565b91507f4552433732313a20617070726f76652063616c6c6572206973206e6f74206f7760008301527f6e6572206e6f7220617070726f76656420666f7220616c6c00000000000000006020830152604082019050919050565b6000613b8b602a83614b01565b91507f4552433732313a2062616c616e636520717565727920666f7220746865207a6560008301527f726f2061646472657373000000000000000000000000000000000000000000006020830152604082019050919050565b6000613bf1602983614b01565b91507f4552433732313a206f776e657220717565727920666f72206e6f6e657869737460008301527f656e7420746f6b656e00000000000000000000000000000000000000000000006020830152604082019050919050565b6000613c57600483614b12565b91507f7d205d7d000000000000000000000000000000000000000000000000000000006000830152600482019050919050565b6000613c97602083614b01565b91507f4552433732313a206d696e7420746f20746865207a65726f20616464726573736000830152602082019050919050565b6000613cd7602c83614b01565b91507f4552433732313a20617070726f76656420717565727920666f72206e6f6e657860008301527f697374656e7420746f6b656e00000000000000000000000000000000000000006020830152604082019050919050565b6000613d3d602983614b01565b91507f4552433732313a207472616e73666572206f6620746f6b656e2074686174206960008301527f73206e6f74206f776e00000000000000000000000000000000000000000000006020830152604082019050919050565b6000613da3602f83614b12565b91507f7d2c207b202274726169745f74797065223a2022437269746963616c2043686160008301527f6e6365222c202276616c7565223a2000000000000000000000000000000000006020830152602f82019050919050565b6000613e09600a83614b12565b91507f7b226e616d65223a2022000000000000000000000000000000000000000000006000830152600a82019050919050565b6000613e49602883614b01565b91507f4572726f723a207365656d7320637275656c20746f2064616d6167652061206360008301527f6f72707365203a4f0000000000000000000000000000000000000000000000006020830152604082019050919050565b6000613eaf602183614b01565b91507f4552433732313a20617070726f76616c20746f2063757272656e74206f776e6560008301527f72000000000000000000000000000000000000000000000000000000000000006020830152604082019050919050565b6000613f15601d83614b12565b91507f646174613a6170706c69636174696f6e2f6a736f6e3b6261736536342c0000006000830152601d82019050919050565b6000613f55603183614b01565b91507f4552433732313a207472616e736665722063616c6c6572206973206e6f74206f60008301527f776e6572206e6f7220617070726f7665640000000000000000000000000000006020830152604082019050919050565b6000613fbb603d83614b12565b91507f222c202261747472696275746573223a205b207b202274726169745f7479706560008301527f223a20224865616c746820506f696e7473222c202276616c7565223a200000006020830152603d82019050919050565b6000614021602d83614b12565b91507f7d2c207b202274726169745f74797065223a202241747461636b2044616d616760008301527f65222c202276616c7565223a20000000000000000000000000000000000000006020830152602d82019050919050565b6000614087602783614b12565b91507f7d2c207b202274726169745f74797065223a2022446566656e7365222c20227660008301527f616c7565223a20000000000000000000000000000000000000000000000000006020830152602782019050919050565b600060a08301600083015184820360008601526140fd82826136c5565b9150506020830151848203602086015261411782826136c5565b915050604083015161412c60408601826142f5565b50606083015161413f60608601826142f5565b50608083015161415260808601826142f5565b508091505092915050565b60006101208301600083015161417660008601826142f5565b506020830151848203602086015261418e82826136c5565b915050604083015184820360408601526141a882826136c5565b91505060608301516141bd60608601826142f5565b5060808301516141d060808601826142f5565b5060a08301516141e360a08601826142f5565b5060c08301516141f660c08601826142f5565b5060e083015161420960e08601826142f5565b5061010083015161421e6101008601826142f5565b508091505092915050565b60006101208301600083015161424260008601826142f5565b506020830151848203602086015261425a82826136c5565b9150506040830151848203604086015261427482826136c5565b915050606083015161428960608601826142f5565b50608083015161429c60808601826142f5565b5060a08301516142af60a08601826142f5565b5060c08301516142c260c08601826142f5565b5060e08301516142d560e08601826142f5565b506101008301516142ea6101008601826142f5565b508091505092915050565b6142fe81614c9c565b82525050565b61430d81614c9c565b82525050565b600061431e82613dfc565b915061432a828c613737565b915061433582613768565b9150614341828b613737565b915061434c82613a00565b9150614358828a613737565b915061436382613fae565b915061436f8289613737565b915061437a8261391a565b91506143868288613737565b915061439182614014565b915061439d8287613737565b91506143a882613d96565b91506143b48286613737565b91506143bf826138b4565b91506143cb8285613737565b91506143d68261407a565b91506143e28284613737565b91506143ed82613c4a565b91508190509a9950505050505050505050565b600061440b82613f08565b91506144178284613737565b915081905092915050565b600060208201905061443760008301846135f9565b92915050565b600060808201905061445260008301876135f9565b61445f60208301866135f9565b61446c6040830185614304565b818103606083015261447e818461368c565b905095945050505050565b600060608201905061449e60008301866135f9565b6144ab6020830185614304565b6144b86040830184614304565b949350505050565b600060208201905081810360008301526144da8184613608565b905092915050565b60006020820190506144f7600083018461367d565b92915050565b6000602082019050818103600083015261451781846136fe565b905092915050565b6000606082019050818103600083015261453981866136fe565b9050614548602083018561367d565b614555604083018461367d565b949350505050565b6000604082019050818103600083015261457781856136fe565b9050818103602083015261458b81846136fe565b90509392505050565b600060808201905081810360008301526145ae81876136fe565b905081810360208301526145c281866136fe565b90506145d16040830185614304565b81810360608301526145e381846136fe565b905095945050505050565b6000608082019050818103600083015261460881876136fe565b9050818103602083015261461c81866136fe565b905061462b6040830185614304565b6146386060830184614304565b95945050505050565b600060a082019050818103600083015261465b81886136fe565b9050818103602083015261466f81876136fe565b905061467e6040830186614304565b61468b6060830185614304565b6146986080830184614304565b9695505050505050565b600060408201905081810360008301526146bc81856136fe565b90506146cb6020830184614304565b9392505050565b600060608201905081810360008301526146ec81866136fe565b90506146fb6020830185614304565b6147086040830184614304565b949350505050565b60006020820190508181036000830152614729816137a8565b9050919050565b600060208201905081810360008301526147498161380e565b9050919050565b6000602082019050818103600083015261476981613874565b9050919050565b600060208201905081810360008301526147898161395a565b9050919050565b600060208201905081810360008301526147a9816139c0565b9050919050565b600060208201905081810360008301526147c981613ab2565b9050919050565b600060208201905081810360008301526147e981613b18565b9050919050565b6000602082019050818103600083015261480981613b7e565b9050919050565b6000602082019050818103600083015261482981613be4565b9050919050565b6000602082019050818103600083015261484981613c8a565b9050919050565b6000602082019050818103600083015261486981613cca565b9050919050565b6000602082019050818103600083015261488981613d30565b9050919050565b600060208201905081810360008301526148a981613e3c565b9050919050565b600060208201905081810360008301526148c981613ea2565b9050919050565b600060208201905081810360008301526148e981613f48565b9050919050565b6000602082019050818103600083015261490a81846140e0565b905092915050565b6000602082019050818103600083015261492c8184614229565b905092915050565b60006020820190506149496000830184614304565b92915050565b600061012082019050614965600083018c614304565b8181036020830152614977818b6136fe565b9050818103604083015261498b818a6136fe565b905061499a6060830189614304565b6149a76080830188614304565b6149b460a0830187614304565b6149c160c0830186614304565b6149ce60e0830185614304565b6149dc610100830184614304565b9a9950505050505050505050565b60006080820190506149ff6000830187614304565b614a0c6020830186614304565b614a19604083018561367d565b614a26606083018461367d565b95945050505050565b6000604051905081810181811067ffffffffffffffff82111715614a5657614a55614e21565b5b8060405250919050565b600067ffffffffffffffff821115614a7b57614a7a614e21565b5b601f19601f8301169050602081019050919050565b6000819050602082019050919050565b600081519050919050565b600081519050919050565b600081519050919050565b6000602082019050919050565b600082825260208201905092915050565b600082825260208201905092915050565b600082825260208201905092915050565b600082825260208201905092915050565b600081905092915050565b6000614b2882614c9c565b9150614b3383614c9c565b9250827fffffffffffffffffffffffffffffffffffffffffffffffffffffffffffffffff03821115614b6857614b67614d94565b5b828201905092915050565b6000614b7e82614c9c565b9150614b8983614c9c565b925082614b9957614b98614dc3565b5b828204905092915050565b6000614baf82614c9c565b9150614bba83614c9c565b9250817fffffffffffffffffffffffffffffffffffffffffffffffffffffffffffffffff0483118215151615614bf357614bf2614d94565b5b828202905092915050565b6000614c0982614c9c565b9150614c1483614c9c565b925082821015614c2757614c26614d94565b5b828203905092915050565b6000614c3d82614c7c565b9050919050565b60008115159050919050565b60007fffffffff0000000000000000000000000000000000000000000000000000000082169050919050565b600073ffffffffffffffffffffffffffffffffffffffff82169050919050565b6000819050919050565b82818337600083830152505050565b60005b83811015614cd3578082015181840152602081019050614cb8565b83811115614ce2576000848401525b50505050565b60006002820490506001821680614d0057607f821691505b60208210811415614d1457614d13614df2565b5b50919050565b6000614d2582614c9c565b91507fffffffffffffffffffffffffffffffffffffffffffffffffffffffffffffffff821415614d5857614d57614d94565b5b600182019050919050565b6000614d6e82614c9c565b9150614d7983614c9c565b925082614d8957614d88614dc3565b5b828206905092915050565b7f4e487b7100000000000000000000000000000000000000000000000000000000600052601160045260246000fd5b7f4e487b7100000000000000000000000000000000000000000000000000000000600052601260045260246000fd5b7f4e487b7100000000000000000000000000000000000000000000000000000000600052602260045260246000fd5b7f4e487b7100000000000000000000000000000000000000000000000000000000600052604160045260246000fd5b6000601f19601f8301169050919050565b614e6a81614c32565b8114614e7557600080fd5b50565b614e8181614c44565b8114614e8c57600080fd5b50565b614e9881614c50565b8114614ea357600080fd5b50565b614eaf81614c9c565b8114614eba57600080fd5b5056fe0a20706c617965722068697420637269746963616c3f202573202c20706c6179657220626c6f636b656420626f73733f2025734142434445464748494a4b4c4d4e4f505152535455565758595a6162636465666768696a6b6c6d6e6f707172737475767778797a303132333435363738392b2f52616e646f6d20232067656e6572617465643a202573202c20666f7220626c6f636b203a2025734d696e746564204e465420772f20746f6b656e496420257320616e6420636861726163746572496e64657820257366696e6973686564207475726e20626f7373206870202573202c202072656d61696e696e6720706c61796572206870203a202573200a506c6179657220772f206368617261637465722025732061626f757420746f2061747461636b2e2048617320257320485020616e64202573204144a264697066735822122016b3cceb75a494f4cff338d121439916fac295ab7cb67bafd064997456591d0464736f6c63430008000033446f6e6520696e697469616c697a696e6720257320772f2048502025732c20696d67202573446f6e6520696e697469616c697a696e6720626f737320257320772f2048502025732c20696d67202573",
  "linkReferences": {},
  "deployedLinkReferences": {}
}